:1000000002308A00272A00000A108A100A1182078B
:100010004D346F346E3400340A108A100A1182078E
:1000200054347534653400340A108A100A1182077A
:1000300057346534643400340A108A100A11820778
:1000400054346834753400340A108A100A11820757
:1000500046347234693400340A108A100A11820757
:1000600053346134743400340A108A100A11820740
:10007000533475346E340034B012751DB012751DD2
:10008000B0127510A539A012F517A53A2F19B0189E
:1000900038058001B012751DB012751DA53AA01269
:1000A0007310A53AAF12F5173218311C0A00B012BE
:1000B000751DA53A3A18A53AA0127310A53AAF12C9
:1000C000F5173218311C0A00B012751DA53ABA1284
:1000D0007510A539A012F517A53A2F19B0183805D3
:1000E0000001A53A3A18A53A3A18A53AA012731099
:1000F000A53AAF12F5173218311C0A00A53A3A1882
:10010000A53ABA127510A539A012F517A53A2F19FC
:10011000B01838050001A53ABA12751DB012751055
:10012000A539A012F517A53A2F19B0183805000106
:10013000A53ABA12751DA53AA0127310A53AAF12CE
:10014000F5173218311C0A00393084008313000877
:100150000319B7280230F800F701F70BAD28F80BA8
:10016000AC289730F700F70BB328800BAA280800BB
:1001700094138C113D0893000230941BC6288C1DEB
:10018000BF2800308316111B01308312F8000800CD
:100190001413831691159119CB2877189112771C97
:1001A00091161116111AD22883121308F8000800AC
:1001B000831611141118DA28D0308312BD00B8202C
:1001C0003608BD00B820831691149118E528D13067
:1001D0008312BD00B820B80101303702380203187D
:1001E000FF280130B900A420213038078400831390
:1001F0000130F700C82078088000B80AEC282130C8
:10020000380784008313F701C8207808800083161C
:1002100011151119092983128A110A12732AF7017B
:10022000F801380803103918F707F70CF80CB9185B
:10023000F707F70CF80C3919F707F70CF80CB91990
:10024000F707F70CF80C391AF707F70CF80CB91A7E
:10025000F707F70CF80C391BF707F70CF80CB91B6C
:10026000F707F70CF80C08003908F80138020318F2
:100270003C293808F7004829F7010830BA00B80DC2
:10028000F70D390877020318F700F80DBA0B3F296C
:10029000080078083608B8006430B90034217708BF
:1002A000B60078083030031D5C29B71C6429B719E3
:1002B0006429371A20305F29B71137123714F8072D
:1002C00078080C1E612999003608B8000A30B90078
:1002D00034217708B60078083030031D7529B71926
:1002E0007A29371C7A29371A2030F80778080C1E2B
:1002F000772999003030B60736080C1E7D29990001
:100300000800800803199729B7010408B6003710C0
:10031000831B371400080C1E8B29990036088400B3
:10032000831337188317840A0319850A8129080063
:100330000B08B7008B13831603178C170C140000DF
:10034000000083120313B71B8B170318D029031760
:100350000C087F390313B70003170D080313B80007
:1003600003170F080313B90037080C1EB5299900AD
:10037000380803178D000313390803178F00031380
:100380000B08BA008B13831603178C170C1400008C
:10039000000083120313BA1B8B17B60BD029F02968
:1003A00003170C0D0E0D7F390313B70003170D084B
:1003B0000313B80003170F080313B90037080C1E06
:1003C000DF299900380803178D0003133908031734
:1003D0008F008D0A03198F0A03100313B60B982997
:1003E00008001030BC00F701FA01B90CB80C031C6E
:1003F000FF293A08F7070318FA0A3B08FA07FA0C2C
:10040000F70CF90CF80CBC0BF5298A110A12782D9F
:100410008316111411180A2AB0308312BD00B820B7
:100420003808BD00B8203A08BB00BC013A08BD003E
:10043000B8203908BB00BC013908BD00B8208316BC
:1004400011151119212A83128A110A12872D030806
:100450001F398300713083168F0090010F08031736
:1004600087110C3003139900A2309800903083124A
:100470009800FF30A000A015200883168700831283
:10048000201620088316870013309300283083122B
:1004900094008316941714138312AA01A9018316DA
:1004A00003170908C039890003131F129F12003077
:1004B00003178800831287018801890183130313BE
:1004C000A101A201A301A401A501A601A701A80100
:1004D0000930B6006F30B900A420B60B6A2AB60105
:1004E0000630B700D828210EF7000F30F70577083F
:1004F000B700B8000A30B9000F217808B60021080B
:100500000F397807AB00220EF7000F30F705770898
:10051000B700B8000A30B9000F217808B6002208E9
:100520000F397807AC00230EF7000F30F705770876
:100530000B39B700B8000A30B9000F217808B600AF
:1005400023080F397807AD0024080F39AE00250EB7
:10055000F7000F30F7057708B700B8000A30B90088
:100560000F217808B60025080F397807B400260E49
:10057000F7000F30F7057708B700B8000A30B90068
:100580000F2126080F397807B50001302E02F93EF9
:100590000318422B073E892DB601B7012F30840086
:1005A00083133608840737080420800000380319B5
:1005B000DC2AB70AB60ACE2A422BB601B7012F3081
:1005C000840083133608840737080C208000003825
:1005D0000319ED2AB70AB60ADF2A422BB601B70182
:1005E0002F308400831336088407370814208000D6
:1005F00000380319FE2AB70AB60AF02A422BB601C0
:10060000B7012F30840083133608840737081C2075
:100610008000003803190F2BB70AB60A012B422BB2
:10062000B601B7012F3084008313360884073708DA
:100630002420800000380319202BB70AB60A122B99
:10064000422BB601B7012F3084008313360884078C
:1006500037082C20800000380319312BB70AB60A5E
:10066000232B422BB601B7012F30840083133608A9
:10067000840737083420800000380319422BB70A5A
:10068000B60A342B2D08093C031C622C2C08093CAB
:10069000031CDA2B2B08093C031C962B30300C1E54
:1006A0004F2B99002D08B6001B30B70049213A3076
:1006B0000C1E582B990030300C1E5C2B99002C0816
:1006C000B6001B30B70049213A300C1E652B99004B
:1006D00030300C1E692B99002B08B6001B30B70078
:1006E000492120300C1E722B99002F308400831377
:1006F000812120300C1E7A2B99003408B6001B3063
:10070000B70049212F300C1E832B99003508B60005
:100710001B30B7004921463003178D0000308F0091
:10072000031006300313B6009821D92B30300C1E6D
:10073000972B99002D08B6001B30B70049213A309D
:100740000C1EA02B990030300C1EA42B99002C08F5
:10075000B6001B30B70049213A300C1EAD2B990072
:100760002B08B6001B30B700492120300C1EB62BD9
:1007700099002F3084008313812120300C1EBE2B62
:1007800099003408B6001B30B70049212F300C1EE9
:10079000C72B99003508B6001B30B70049215330EC
:1007A00003178D0000308F00031406300313B600CA
:1007B0009821612C2B08093C031C222C30300C1E84
:1007C000DF2B99002D08B6001B30B70049213A30C5
:1007D0000C1EE82B99002C08B6001B30B7004921ED
:1007E0003A300C1EF12B990030300C1EF52B99007D
:1007F0002B08B6001B30B700492120300C1EFE2B01
:1008000099002F3084008313812120300C1E062C88
:1008100099003408B6001B30B70049212F300C1E58
:100820000F2C99003508B6001B30B7004921603005
:1008300003178D0000308F00031406300313B60039
:100840009821612C30300C1E232C99002D08B60005
:100850001B30B70049213A300C1E2C2C99002C0873
:10086000B6001B30B70049213A300C1E352C9900D8
:100870002B08B6001B30B700492120300C1E3E2C3F
:1008800099002F3084008313812120300C1E462CC8
:1008900099003408B6001B30B70049212F300C1ED8
:1008A0004F2C99003508B6001B30B70049216D3038
:1008B00003178D0000308F00031006300313B600BD
:1008C00098216D2D2C08093C031CEE2C2B08093CAB
:1008D000031CAE2C2D08B6001B30B70049213A305E
:1008E0000C1E702C990030300C1E742C99002C08B2
:1008F000B6001B30B70049213A300C1E7D2C990000
:1009000030300C1E812C99002B08B6001B30B7002C
:10091000492120300C1E8A2C99002F30840083132B
:10092000812120300C1E922C99003408B6001B3017
:10093000B70049212F300C1E9B2C99003508B600BA
:100940001B30B70049217A3003178D0000308F002B
:10095000031406300313B6009821ED2C2D08B600C1
:100960001B30B70049213A300C1EB42C99003030AE
:100970000C1EB82C99002C08B6001B30B70049217A
:100980003A300C1EC12C99002B08B6001B30B70062
:10099000492120300C1ECA2C99002F30840083136B
:1009A000812120300C1ED22C99003408B6001B3057
:1009B000B70049212F300C1EDB2C99003508B600FA
:1009C0001B30B7004921873003178D0000308F009E
:1009D000031006300313B60098216D2D2B08093C37
:1009E000031C322D2D08B6001B30B70049213A30C8
:1009F0000C1EF82C99002C08B6001B30B7004921BA
:100A00003A300C1E012D990030300C1E052D990036
:100A10002B08B6001B30B700492120300C1E0E2DCC
:100A200099002F3084008313812120300C1E162D55
:100A300099003408B6001B30B70049212F300C1E36
:100A40001F2D99003508B6001B30B700492194309E
:100A500003178D0000308F00031006300313B6001B
:100A600098216D2D2D08B6001B30B70049213A3072
:100A70000C1E382D99002C08B6001B30B7004921F8
:100A80003A300C1E412D99002B08B6001B30B700E0
:100A9000492120300C1E4A2D99002F3084008313E9
:100AA000812120300C1E522D99003408B6001B30D5
:100AB000B70049212F300C1E5B2D99003508B60078
:100AC0001B30B7004921A03003178D0000308F0084
:100AD000031406300313B6009821B7012C08B600A2
:100AE0003708B9003608B800BB016430BA00F129F4
:100AF0007908B7007808B6002B08B6070318B70ABC
:100B00000230B8003708BA003608B900082A682A47
:100B100063000A148A100A158207CC2ADD2AEE2AFD
:080B2000FF2A102B212B322BC0
:04400E00C42FFF3F7D
:00000001FF
;PIC16F886
;CRC=DB10  CREATED="31-Á.¤.-18 21:51"
