:1000000000308A0064280000FF00030E8301A10075
:100010000A08A0008A010408A2007708A300780853
:10002000A4007908A5007A08A600831383128C30F7
:100030008400001C1D280C182E2822088400230888
:10004000F7002408F8002508F9002608FA0020081F
:100050008A00210E8300FF0E7F0E09008A110A120A
:1000600031280310400D103E84008317840A0008D5
:100070000317EB0084030008EA0003138E01031743
:100080006B0803138F0003176A0803138E0083168F
:1000900006121030831286060C108A110A121D28CF
:1000A0006930840083170008031963280230F800C0
:1000B000F701F70B5928F80B58289730F700F70B82
:1000C0005F28800B5628080003081F398300713011
:1000D00083168F0090010F08031787110C3003134C
:1000E0009900A2309800903083129800FF30A7004A
:1000F000A71527088316870083122716270883165B
:1001000087001330930028308312940083169417CD
:100110001413FF308312A9001230A800FF30AB0087
:100120001F30AA00FF30AD002C30AC00FF30AF0014
:100130003830AE00FF30B1004330B000FF30B300C4
:100140004E30B200FF30B5005830B400FF30B70079
:100150006130B600FF30B9006A30B800FF30BB0034
:100160007230BA00FF30BD007A30BC00FF30BF00F3
:100170008230BE000130C000831603170908C03961
:10018000890003131F129F12003003178800831287
:10019000870188018901831303132908031793003A
:1001A0000313280803179200031329080317950067
:1001B0000313280803179400031337080317970045
:1001C0000313360803179600031337080317990023
:1001D000031336080317980003133B0803179B000B
:1001E00003133A0803179A0003133B0803179D00F3
:1001F00003133A0803179C000313370803179F00E3
:100200000313360803179E00031333080317A100D6
:10021000031332080317A000031333080317A300C6
:10022000031332080317A200031331080317A500B4
:10023000031330080317A400031331080317A700A2
:10024000031330080317A60003132D080317A90092
:1002500003132C080317A80003132D080317AB0082
:1002600003132C080317AA0003132D080317AD006E
:1002700003132C080317AC0003132D080317AF005A
:1002800003132C080317AE00031329080317B1004A
:10029000031328080317B000031337080317B3002C
:1002A000031336080317B200031337080317B5000A
:1002B000031336080317B400031333080317B700FA
:1002C000031332080317B600031331080317B900EC
:1002D000031330080317B800031331080317BB00DA
:1002E000031330080317BA0003132D080317BD00CA
:1002F00003132C080317BC00031337080317BF00B0
:10030000031336080317BE00031337080317C10091
:10031000031336080317C000031337080317C3007D
:10032000031336080317C200031333080317C5006D
:10033000031332080317C400031331080317C7005F
:10034000031330080317C600031331080317C9004D
:10035000031330080317C80003132D080317CB003D
:1003600003132C080317CA00031329080317CD0031
:10037000031328080317CC00031329080317CF0021
:10038000031328080317CE00031337080317D100FF
:10039000031336080317D000031337080317D300DD
:1003A000031336080317D20003133B080317D500C5
:1003B00003133A080317D40003133B080317D700AD
:1003C00003133A080317D600031337080317D9009D
:1003D000031336080317D800031333080317DB0091
:1003E000031332080317DA00031333080317DD0081
:1003F000031332080317DC00031331080317DF006F
:10040000031330080317DE00031331080317E1005C
:10041000031330080317E00003132D080317E3004C
:1004200003132C080317E20003132D080317E5003C
:1004300003132C080317E400031329080317E7002C
:10044000031328080317E6003530031390008316C2
:100450000C14C03083128B040310400D103E840036
:100460008317840A00080317E90084030008E800E2
:1004700003138E010317690803138F00031768081D
:1004800003138E0040080C3C0319482A0030492A07
:1004900001300317E800031340080D3C0319522AEA
:1004A0000030532A01300317E804031340080E3CC0
:1004B00003195C2A00305D2A01300317E804031396
:1004C00040080F3C0319662A0030672A01300317E1
:1004D000E80403134008173C0319702A0030712AFE
:1004E00001300317E80403134008183C03197A2A63
:1004F00000307B2A01300317E80403134008193C3D
:100500000319842A0030852A01300317680403196F
:100510008F2AFA30E90003135020992A031702307A
:10052000E800FA30E900031350200317E80B912A82
:1005300003134008073C03199F2A0030A02A01300A
:100540000317E80003134008103C0319A92A0030E0
:10055000AA2A01300317E80403134008133C0319C7
:10056000B32A0030B42A01300317E804031340080B
:10057000163C0319BD2A0030BE2A01300317E804D7
:10058000031340081A3C0319C72A0030C82A013057
:100590000317E804031340081D3C0319D12A003057
:1005A000D22A01300317E80403134008243C03193E
:1005B000DB2A0030DC2A0130031768040319E92A1A
:1005C0000230E800FA30E900031350200317E80B6B
:1005D000E22A0313C00A40082B3C031DFC2A043006
:1005E0000317E800FA30E900031350200317E80B63
:0C05F000F22A01300313C0002C2A630023
:04400E00C42FFF3F7D
:00000001FF
;PIC16F886
;CRC=935B  CREATED="07-Feb-18 16:09"
