:1000000000308A0033280000FF00030E8301A100A6
:100010000A08A0008A010408A2007708A300780853
:10002000A4007908A5007A08A600831383128B1D0B
:100030001B280B182C28220884002308F70024080A
:10004000F8002508F9002608FA0020088A00210E89
:100050008300FF0E7F0E09008A110A122F280B1051
:100060008A110A121B2803081F3983007130831676
:100070008F0090010F08031787110C3003139900AC
:10008000A230980090308312980083160317090855
:10009000C039890003131F129F1200300317880014
:1000A0008312870188018901831303138B1583163B
:0A00B0009617C03083128B04630022
:04400E00C42FFF3F7D
:00000001FF
;PIC16F886
;CRC=C6A6  CREATED="07-Feb-18 13:34"
