:1000000000308A005E280000FF00030E8301A1007B
:100010000A08A0008A010408A2007708A300780853
:10002000A4007908A5007A08A600831383128C30F7
:100030008400001C1D280C182E2822088400230888
:10004000F7002408F8002508F9002608FA0020081F
:100050008A00210E8300FF0E7F0E09008A110A120A
:1000600031280310620D483E84008313840A00087F
:10007000E60084030008E5008E0166088F0065082D
:100080008E00831606121030831286060C108A1119
:100090000A121D28643084008313000803195D28A8
:1000A0000230F800F701F70B5328F80B522897306D
:1000B000F700F70B5928800B5028080003081F3958
:1000C0008300713083168F0090010F08031787118A
:1000D0000C3003139900A2309800903083129800DE
:1000E000FF30A700A715270883168700831227165D
:1000F000270883168700133093002830831294005A
:10010000831694171413FF308312A9001230A8002D
:10011000FF30AB001F30AA00FF30AD002C30AC0028
:10012000FF30AF003830AE00FF30B1004330B000D8
:10013000FF30B3004E30B200FE30B500AF30B40037
:10014000FF30B7006130B600FE30B900D430B800DF
:10015000FF30BB007230BA00FF30BD007A30BC0007
:10016000FF30BF000330BE00FE30C1005730C0007A
:10017000FE30C3008530C200FE30C500E430C4004C
:10018000FE30C7003E30C6000130E2008316031780
:100190000908C039890003131F129F12003003178A
:1001A00088008312870188018901831303133108B2
:1001B000CB003008CA002D08CD002C08CC00350833
:1001C000CF003408CE003908D1003808D0002B0801
:1001D000D3002A08D2003F08D5003E08D4004108C9
:1001E000D7004008D6004308D9004208D8003F088D
:1001F000DB003E08DA004508DD004408DC002B087F
:10020000DF002A08DE003108E1003008E0003B088A
:10021000E3003A08E200353090008E014B088F0071
:100220004A088E000230E300FA30E4004A20E30B73
:100230001429E20A83160C14C03083128B040310B5
:10024000620D483E84008313840A0008E40084039E
:100250000008E3008E0164088F0063088E00C83038
:10026000E4004A206208043C031938290030392987
:100270000130E3006208083C03194029003041299D
:100280000130E30462080B3C031948290030492976
:100290000130E30462080C3C031950290030512955
:1002A0000130E30462080D3C031958290030592934
:1002B00001306304031963290230E300FA30E400DB
:1002C0004A20E30B5E2962080D3C031D69290130B9
:0802D000E200E20A1F296300AD
:04400E00C42FFF3F7D
:00000001FF
;PIC16F886
;CRC=AF42  CREATED="07-Feb-18 15:51"
