:1000000000308A0052280000FF00030E8301A10087
:100010000A08A0008A010408A2007708A300780853
:10002000A4007908A5007A08A600831383128C30F7
:100030008400001C1D280C182E2822088400230888
:10004000F7002408F8002508F9002608FA0020081F
:100050008A00210E8300FF0E7F0E09008A110A120A
:1000600031288E0104308F00A6308E000130A706A3
:100070000C108A110A121D282A30840083130008EC
:1000800003194F280230F800F701F70B4528F80B49
:1000900044289730F700F70B4B28800B42288A1131
:1000A0000A128C2803081F3983008316031787114F
:1000B0000C3003139900A2309800903083129800FE
:1000C0002710A710831603170908C03989000313E6
:1000D0001F129F12003003178800831287018801C6
:1000E000890183133530031390008E0104308F0093
:1000F000A6308E008B1583169617C03083128B04A2
:10010000A801271C942883168612831286160430B1
:10011000A900FA30AA003C28A90B89288316861268
:0C012000831286120130A70681286300BC
:04400E00C22FFF3F7F
:00000001FF
;PIC16F886
;CRC=59FD  CREATED="07-Feb-18 13:52"
