:1000000000308A0045280000FF00030E8301A10094
:100010000A08A0008A010408A2007708A300780853
:10002000A4007908A5007A08A600831383128C30F7
:100030008400001C1D280C182E2822088400230888
:10004000F7002408F8002508F9002608FA0020081F
:100050008A00210E8300FF0E7F0E09008A110A120A
:1000600031288E010B308F00DC308E00A70A270864
:10007000133C03184128831686122030831286060B
:10008000A7010C108A110A121D2803081F398300CA
:10009000713083168F0090010F08031787110C3001
:1000A00003139900A2309800903083129800A701A2
:1000B000831603170908C039890003131F129F1202
:1000C0000030031788008312870188018901831398
:1000D0003530031390008E010B308F00DC308E0022
:0E00E00083160C14C03083128B047528630045
:04400E00C42FFF3F7D
:00000001FF
;PIC16F886
;CRC=B679  CREATED="14-Feb-18 00:30"
