:1000000000308A0028280000243084008313000870
:10001000031917280230F800F701F70B0D28F80B29
:100020000C289730F700F70B1328800B0A280800DC
:1000300094138C11250893000230941B26288C1DE4
:100040001F2800308316111B01308312F8000800AE
:1000500003081F398300713083168F0090010F0849
:10006000031787110C3003139900A23098009030C9
:1000700083129800FF30A000A01520088316870087
:10008000831220162008831687001330930028302F
:100090008312940083169417141303170908C039A8
:1000A000890003131F129F12003003178800831268
:1000B000870188018901831304300313A300FA30F8
:1000C000A4000420A30B5F282630A200FC30A1006E
:1000D0002208273C031C9928031D722821080F3C85
:1000E000031C99280230A300FA30A4000420A30BBB
:1000F00074288316111411187B28B0308312A500C0
:1001000018200230A50018202208A300A40122080C
:10011000A50018202108A300A4012108A50018208B
:1001200083161115111992288312A10A0319A20A24
:0401300068286300D8
:04400E00C42FFF3F7D
:00000001FF
;PIC16F886
;CRC=E272  CREATED="31-Á.¤.-18 16:15"
