:1000000000308A00E22800002B30840083130008AF
:10001000031917280230F800F701F70B0D28F80B29
:100020000C289730F700F70B1328800B0A280800DC
:1000300094138C112B0893000230941B26288C1DDE
:100040001F2800308316111B01308312F8000800AE
:100050008316111411182A28B0308312AB0018200F
:100060002908AB0018202A08AB00182083161115A8
:100070001119382883128A110A122B298316111498
:1000800011184028B0308312AB0018202908AB00AB
:1000900018208316911491184B28B1308312AB00AD
:1000A00018200130AB000420F701141383169115BA
:1000B0009119582877189112771C91161116111A58
:1000C0005F2883121308F8007808AA008316111518
:1000D0001119682883122A08F8008A110A122E2999
:1000E0003108F8013002031878283008F700842816
:1000F000F7010830B200B00DF70D31087702031890
:10010000F700F80DB20B7B28080020302B1E303092
:10011000AC002A08F700AA1F9528F709F70A770804
:10012000AA002D30AC00AB172B142A08B0006430A5
:10013000B10070207708AA0030307807AD002A0897
:10014000B0000A30B100702030307707AF00303097
:100150007807AE002C08F70030302D020319B428C0
:10016000AB14AB1B2B15C8282C08AD002030AC00FD
:1001700030302E020319C0282B14AB1BAB14C82837
:10018000031D2B14031DC8282D08AE002030AD0020
:100190002B19CF28AB18D3282B18D728DB282C08ED
:1001A0000C1ED02899002D080C1ED42899002E086A
:1001B0000C1ED82899002F080C1EDC2899008A11E3
:1001C0000A12342903081F398300713083168F0007
:1001D00090010F08031787110C3003139900A23008
:1001E0009800903083129800FF30A000A0152008DE
:1001F0008316870083122016200883168700133089
:100200009300283083129400831694171413031755
:100210000908C039890003131F129F120030031709
:100220008800831287018801890183130313A101C8
:10023000A201A301A401A501A601A701A8010830FC
:10024000A900FA30AB000420A90B21290330A90032
:100250000130AA0028280330A9003E287808A90008
:0A026000AA001830AB0085286300E7
:04400E00C42FFF3F7D
:00000001FF
;PIC16F886
;CRC=3143  CREATED="25-Á.¤.-18 21:35"
