:1000000000308A005B280000FF00030E8301A1007E
:100010000A08A0008A010408A2007708A300780853
:10002000A4007908A5007A08A600831383128C30F7
:100030008400001C1D280C182E2822088400230888
:10004000F7002408F8002508F9002608FA0020081F
:100050008A00210E8300FF0E7F0E09008A110A120A
:1000600031288E0117308F00B8308E00281C4828A8
:10007000831606134030831286060130A8063130FD
:100080000C1E402899000A300C1E4428990057285D
:10009000831606134030831286060130A8063230DC
:1000A0000C1E502899000A300C1E542899000C1080
:1000B0008A110A121D2803081F3983007130831624
:1000C0008F0090010F08031787110C30031399005C
:1000D000A2309800903083129800A7012810831650
:1000E00003170908C039890003131F129F1200303B
:1000F0000317880083128701880189018313353033
:10010000031390008E0117308F00B8308E008316D5
:0A0110000C14C03083128B0463004E
:04400E00C42FFF3F7D
:00000001FF
;PIC16F886
;CRC=CE39  CREATED="01-¡.¾.-18 16:52"
