:1000000001308A0036290000FF00030E8301A100A1
:100010000A08A0008A010408A2007708A300780853
:10002000A4007908A5007A08A60003170D08031399
:10003000A70003170F080313A80003170C080313E6
:10004000A90003170E080313AA00831383128C3030
:100050008400001C2D280C184E2822088400230838
:10006000F7002408F8002508F9002608FA002708F8
:1000700003178D000313280803178F0003132908A3
:1000800003178C0003132A0803178E00031320089C
:100090008A00210E8300FF0E7F0E09008A110A12CA
:1000A00051288E012F308F0070308E00AB0A2B0844
:1000B0000A3C031D69282C1C6228831686128312B1
:1000C0008612662883168612831286160130AC06C5
:1000D000AB010C108A110A122D28C23A743A6F37FC
:1000E0002038F232F339A012F5060A000B08B000EE
:1000F0008B13831603178C170C1400000000831257
:100100000313B01B8B170318AE2803170C087F3995
:100110000313B00003170D080313B10003170F08F2
:100120000313B20030080C1E9328990031080317FE
:100130008D000313320803178F0003130B08B3005D
:100140008B13831603178C170C1400000000831206
:100150000313B31B8B17AF0BAE28CE2803170C0D60
:100160000E0D7F390313B00003170D080313B10000
:1001700003170F080313B20030080C1EBD289900A6
:10018000310803178D000313320803178F008D0AFF
:1001900003198F0A03100313AF0B76288A110A1272
:1001A00076293208F80131020318D9283108F700FE
:1001B000E528F7010830B300B10DF70D32087702DA
:1001C0000318F700F80DB30BDC28080078082F0897
:1001D000B1006430B200D1207708AF007808303029
:1001E000031DF928B01C0129B0190129301A20304B
:1001F000FC28B01130123014F80778080C1EFE28C5
:1002000099002F08B1000A30B200D1207708AF0062
:1002100078083030031D1229B0191729301C17290E
:10022000301A2030F80778080C1E14299900303055
:10023000AF072F080C1E1A2999008A110A127B2970
:100240002F30840083130008031933290230F8008B
:10025000F701F70B2929F80B28299730F700F70B3E
:100260002F29800B26298A110A12882903081F3991
:1002700083008316031787110C3003139900A230F3
:100280009800903083129800AB012C10831603174E
:100290000908C039890003131F129F120030031789
:1002A0008800831287018801890183133530031385
:1002B00090008E012F308F0070308E0083160C144A
:1002C000C03083128B04AD01831686178312861B00
:1002D0008A292D08AD0AAE006D3003178D0000305D
:1002E0008F0003100D300313AF0076282E08AF00E7
:1002F0001B30B000E6280D300C1E7C2999000A3016
:100300000C1E802999000230AE00FA30AF0020297F
:08031000AE0B8529642963008E
:04400E00C22FFF3F7F
:00000001FF
;PIC16F886
;CRC=12AD  CREATED="03-Feb-18 12:53"
