:1000000000308A000428000003081F398300713083
:1000100083168F0090010F08031787110C3003130C
:100020009900A2309800903083129800831603172D
:100030000908C039890003131F129F1200300317EB
:100040008800831287018801890183130313A101AA
:10005000A201831686178312861B3D28831606137A
:1000600083120617A10A69300C1E342899000A3041
:100070000C1E38289900A2014428A208031D442818
:0C00800083160613831206132928630060
:04400E00C42FFF3F7D
:00000001FF
;PIC16F886
;CRC=6451  CREATED="11-Á.¤.-18 15:56"
