:1000000000308A00CE280000E8326C366F10F737D7
:10001000723664102D10A53A0D0500000B08A400DF
:100020008B13831603178C170C1400000000831227
:100030000313A41B8B170318462803170C087F39DA
:100040000313A40003170D080313A50003170F08DB
:100050000313A60024080C1E2B289900250803175B
:100060008D000313260803178F0003130B08A70046
:100070008B13831603178C170C14000000008312D7
:100080000313A71B8B17A30B4628662803170C0D19
:100090000E0D7F390313A40003170D080313A500E9
:1000A00003170F080313A60024080C1E55289900F7
:1000B000250803178D000313260803178F008D0AE8
:1000C00003198F0A03100313A30B0E288A110A12B7
:1000D000FF282608F8012502031871282508F700D3
:1000E0007D28F7010830A700A50DF70D2608770237
:1000F0000318F700F80DA70B7428080078082308E8
:10010000A5006430A60069207708A3007808303085
:10011000031D9128A41C9928A4199928241A203079
:100120009428A41124122414F80778080C1E962889
:1001300099002308A5000A30A60069207708A300CB
:1001400078083030031DAA28A419AF28241CAF2832
:10015000241A2030F80778080C1EAC28990030309B
:10016000A30723080C1EB22899008A110A12042939
:1001700023308400831300080319CB280230F800D1
:10018000F701F70BC128F80BC0289730F700F70BE1
:10019000C728800BBE288A110A12162903081F39A6
:1001A0008300713083168F0090010F0803178711A9
:1001B0000C3003139900A2309800903083129800FD
:1001C000831603170908C039890003131F129F12F1
:1001D0000030031788008312870188018901831387
:1001E0000313A1012108A10AA200043003178D0006
:1001F00000308F0003100E300313A3000E282208D6
:10020000A3001B30A4007E280D300C1E0529990088
:100210000A300C1E09299900831686122030831299
:1002200086060430A200FA30A300B828A20B1329D6
:04023000F22863004D
:04400E00C42FFF3F7D
:00000001FF
;PIC16F886
;CRC=94B3  CREATED="13-Feb-18 19:56"
