:1000000000308A0064280000FF00030E8301A10075
:100010000A08A0008A010408A2007708A300780853
:10002000A4007908A5007A08A600831383128C30F7
:100030008400001C1D280C182E2822088400230888
:10004000F7002408F8002508F9002608FA0020081F
:100050008A00210E8300FF0E7F0E09008A110A120A
:1000600031288E01FF308F0006308E00A70A270846
:10007000043C031CA701A708031D4228831686120F
:100080008312861628082702031D4A288316861223
:10009000831286120C108A110A121D28293084003E
:1000A00083130008031961280230F800F701F70BE9
:1000B0005728F80B56289730F700F70B5D28800B70
:1000C00054288A110A12A92803081F3983007130A5
:1000D00083168F0090010F08031787110C3003134C
:1000E0009900A2309800903083129800A701A801CF
:1000F000831603170908C039890003131F129F12C2
:100100000030031788008312870188018901831357
:100110003530031390008E01FF308F0006308E00C3
:1001200083160C14C03083128B0483168617831237
:10013000861BAA282808043C0318A028A801A12887
:10014000A80A831686178312861BAA280130A900E5
:080150004E28A1289528630048
:04400E00C42FFF3F7D
:00000001FF
;PIC16F886
;CRC=0474  CREATED="14-Feb-18 07:13"
