:1000000000308A001A28000023308400831300087F
:10001000031917280230F800F701F70B0D28F80B29
:100020000C289730F700F70B1328800B0A288A1149
:100030000A12842803081F398300713083168F0049
:1000400090010F08031787110C3003139900A23099
:100050009800903083129800A101A001FF30A20007
:10006000831603170908C039890003131F129F1252
:1000700000300317880083128701880189018313E8
:1000800003132211220883168700831207110C30F4
:10009000970083169B019C0101309D003830F800C9
:1000A000063883129200FF3083169200861783125F
:1000B000861B85288030A0070318A10A2108023C6E
:1000C00003186928FF3A031D69282008FE3C03181D
:1000D00069282108F9002008F800F90CF80CF90C3F
:1000E000F80CF90C78089500F90C790C3039F70008
:1000F0001708CF3977049700831686178312861B5B
:1001000085280130A30004287C2883165628630024
:04400E00C42FFF3F7D
:00000001FF
;PIC16F886
;CRC=2412  CREATED="14-Feb-18 07:36"
