:1000000000308A0062280000FF00030E8301A10077
:100010000A08A0008A010408A2007708A300780853
:10002000A4007908A5007A08A600831383128C30F7
:100030008400001C1D280C182E2822088400230888
:10004000F7002408F8002508F9002608FA0020081F
:100050008A00210E8300FF0E7F0E09008A110A120A
:1000600031288E01FE308F000C308E00A80A28083F
:10007000133C0319A801A808031D42288316061281
:10008000831206162B082802031D4A28831606121F
:10009000831206120C108A110A121D282D308400BA
:1000A00083130008031961280230F800F701F70BE9
:1000B0005728F80B56289730F700F70B5D28800B70
:1000C0005428080003081F398300713083168F00FD
:1000D00090010F08031787110C3003139900A23009
:1000E0009800903083129800FF30A700A7152708CA
:1000F000831687008312271627088316870013307C
:1001000093002830831294008316941714138312DB
:10011000A801A9010130AA000130AB008316031722
:100120000908C039890003131F129F1200300317FA
:1001300088008312870188018901831335300313F6
:1001400090008E01FE308F000C308E0083160C1450
:10015000C03083128B04831686178312861BCD282A
:100160002A0BCD2883168612831286160430AC0023
:10017000FA30AD004E20AC0BB8282B0BC62802304D
:10018000AB008316861283128612C8280130AB009A
:10019000AA01C830AD004E20CF280130AA00AB28FC
:0201A0006300FA
:04400E00C42FFF3F7D
:00000001FF
;PIC16F886
;CRC=12CB  CREATED="15-Feb-18 13:58"
