:1000000000308A0064280000FF00030E8301A10075
:100010000A08A0008A010408A2007708A300780853
:10002000A4007908A5007A08A600831383128C30F7
:100030008400001C1D280C182E2822088400230888
:10004000F7002408F8002508F9002608FA0020081F
:100050008A00210E8300FF0E7F0E09008A110A120A
:1000600031288E01FE308F000C308E00C10A41080D
:10007000133C0319C101C108031D4228831606124F
:100080008312061644084102031D4A2883160612ED
:10009000831206120C108A110A121D2810308400D7
:1000A00083170008031961280230F800F701F70BE5
:1000B0005728F80B56289730F700F70B5D28800B70
:1000C00054288A110A12FA2803081F398300713054
:1000D00083168F0090010F08031787110C3003134C
:1000E0009900A2309800903083129800FF30A7004A
:1000F000A71527088316870083122716270883165B
:1001000087001330930028308312940083169417CD
:100110001413F8308312A9008A30A800F830AB001D
:10012000F530AA00F930AD005A30AC00F930AF001C
:10013000BA30AE00FA30B1001430B000FA30B3007B
:100140006930B200FA30B500B930B400FB30B70006
:100150000530B600FB30B9004C30B800FB30BB00B6
:100160009030BA00FC30BD000C30BC00FC30BF0049
:100170000C30BE00C001C101C2010130C30001301A
:10018000C400831603170908C039890003131F121E
:100190009F120030031788008312870188018901AC
:1001A00083133530031390008E01FE308F000C3026
:1001B0008E0083160C14C03083128B0483168617AE
:1001C0008312861BFB28430BFB28440BEE280230CE
:1001D000C4008316861283128612F4280130C400EC
:1001E0008316861283128616C301C8300317900047
:0E01F00003134E28FD280130C300DE286300F3
:04400E00C42FFF3F7D
:00000001FF
;PIC16F886
;CRC=FB4B  CREATED="14-Feb-18 13:41"
