:1000000000308A00B9280000FF00030E8301A10020
:100010000A08A0008A010408A2007708A300780853
:10002000A4007908A5007A08A600831383128C30F7
:100030008400001C1D280C182E2822088400230888
:10004000F7002408F8002508F9002608FA0020081F
:100050008A00210E8300FF0E7F0E09008A110A120A
:1000600031288E01FF308F0083308E00A70A2708C9
:10007000093C031CA701A708031D4228831606128A
:1000800083120616AD012708AC008E30F7002D084C
:10009000F8002C08F900FA01F808031D592879081E
:1000A000F800F9010830F702F808031D5928F70194
:1000B00061280310F81B6028F90DF80DF703592883
:1000C000F8137A08AF007908AE007808AD00770819
:1000D000AC002B08B3002A08B2002908B100280898
:1000E000B0002D08B4003108B406B41F7C280311F9
:1000F0000310AD1B0314AF282D08B4003008B50061
:100100002C08B50203198A28B41FAF280308013A46
:100110008300AF283108B5002D08B50203199628D1
:10012000B41FAF280308013A8300AF283208B50096
:100130002E08B5020319A228B41FAF280308013AFC
:100140008300AF283308B5002F08B5020319AE2885
:10015000B41FAF280308013A8300AF280310031D22
:10016000B52883160612831206120C108A110A1281
:100170001D2803081F398300713083168F009001FA
:100180000F08031787110C3003139900A230980051
:10019000903083129800A701AB01AA01A901803019
:1001A000A800831603170908C039890003131F121A
:1001B0009F1200300317880083128701880189018C
:1001C00083133530031390008E01FF308F0083308E
:1001D0008E0083160C14C03083128B04EE2863004B
:04400E00C42FFF3F7D
:00000001FF
;PIC16F886
;CRC=8213  CREATED="14-Feb-18 09:36"
