:1000000001308A0037290000D3306D38EC34EE33EC
:10001000BA060A00D332EE396F39203B6136F53229
:10002000A01EA012CC3A0D0500000B08A6008B13F1
:10003000831603178C170C1400000000831203139F
:10004000A61B8B1703170C087F3903196B280313A2
:10005000A60003170D080313A70003170F080313C7
:10006000A80026080C1E32289900270803178D00C7
:100070000313280803178F0003130B08A9008B1321
:10008000831603178C170C1400000000831203134F
:10009000A91B8B1703170C0D0E0D7F3903196B2845
:1000A0000313A60003170D080313A70003170F0877
:1000B0000313A80026080C1E5B28990027080317C5
:1000C0008D000313280803178F008D0A03198F0A68
:1000D00003131528031703138A110A1274290B0836
:1000E000A9008B13831603178C170C140000000053
:1000F00083120313A91B8B170318A72803170C08D7
:100100007F390313A90003170D080313AA0003176F
:100110000F080313AB0029080C1E8C2899002A082D
:1001200003178D0003132B0803178F0003130B080D
:10013000AC008B13831603178C170C1400000000FF
:1001400083120313AC1B8B17A80BA728C728031710
:100150000C0D0E0D7F390313A90003170D080313AF
:10016000AA0003170F080313AB0029080C1EB628BA
:1001700099002A0803178D0003132B0803178F001B
:100180008D0A03198F0A03100313A80B6F288A1115
:100190000A129A29B0010408AF003010831B3014F2
:1001A000290EF038AB00AB07E23EAC00323EAE00A9
:1001B00029080F39AC07AC07AE07E93EAD00AD0723
:1001C000AD07280E0F39AD07AE07AD0DAE0DAE0968
:1001D000AE0D28080F39AE07AB0D0730AA000A3064
:1001E000AE07AD03031CF028AD07AC03031CF428D5
:1001F000AC07AB03031CF828AB07AA03031CFC28BD
:100200002A308400831307302F052F1384072E30E4
:10021000040203192F170008F700031D17292F1BCD
:1002200017292F1A1F29AF19172920301A29AF159E
:100230002F123030F70777080C1E1C299900840A0A
:100240002F1F072908002630840083130008031994
:1002500036290230F800F701F70B2C29F80B2B296F
:100260009730F700F70B3229800B29290800030883
:100270001F398300713083168F0090010F08031718
:1002800087110C3003139900A2309800903083122C
:100290009800A101A001831603170908C03989003D
:1002A00003131F129F120030031788008312870167
:1002B00088018901831383160908C0398900031353
:1002C0001F129F12013003178800831203131F1798
:1002D0009F1783169F1783121F14043003178D0076
:1002E00000308F00031315280030F8001F08C339B1
:1002F00078049F004230F700F70B7C290000A3012F
:10030000FA30A200A5015A30A4009F149F18862934
:100310001E08FA0083161E088312A6001E08A700F6
:100320000A3003178D0000308F0003100F300313C5
:10033000A8006F28103084002708A9002608A8000C
:10034000CA200D300C1EA22999000A300C1EA629C5
:1003500099009F149F18AA291E08FA0083161E08E8
:100360008312A6001E08A70024300C1EB529990090
:10037000103084002708A9002608A800CA202030D1
:100380000C1EC0299900103084002308A9002208FF
:10039000A800CA2020300C1ECB2999001030840000
:1003A0002508A9002408A800CA203B300C1ED62925
:1003B00099000530A60023216430A60023219F1454
:1003C0009F18E0291E08FA0083161E088312A60053
:1003D0007A08A700A708031DF1292608FA3C03188C
:1003E000F52983160613831206139F149F18F62906
:1003F0001E08FA0083161E088312A6007A08A700BA
:10040000A708031D0B2A2608593C031C0B2A831638
:0A0410000613831206178529630006
:04400E00C42FFF3F7D
:00000001FF
;PIC16F886
;CRC=CC73  CREATED="25-Á.¤.-18 21:35"
