:1000000000308A002A28000094138C1125089300E0
:100010000230941B12288C1D0B2800308316111BF4
:1000200001308312F8000800243084008313000894
:10003000031927280230F800F701F70B1D28F80BE9
:100040001C289730F700F70B2328800B1A288A11F9
:100050000A12952803081F398300713083168F0018
:1000600090010F08031787110C3003139900A23079
:100070009800903083129800FF30A000A01520084F
:1000800083168700831220162008831687001330FA
:1000900093002830831294008316941714130317C7
:1000A0000908C039890003131F129F12003003177B
:1000B0008800831287018801890183130313A20139
:1000C0000130A1002208273C031CB128031D6C2825
:1000D00021080E3C031CB1288316111411186E2838
:1000E000B0308312A50004200230A50004202208AD
:1000F000A300A4012208A50004202108A300A40154
:100100002108A500042083161115111985288312D2
:1001100021080E3C031DAD282208273C031DAD28F5
:100120000430A300FA30A4001428A30B92288316ED
:10013000111411189928B0308312A5000420023040
:10014000A50004202730A50004200F30A5000420BE
:10015000831611151119AA288312A10A0319A20ADC
:0401600062286300AE
:04400E00C42FFF3F7D
:00000001FF
;PIC16F886
;CRC=271C  CREATED="31-Á.¤.-18 14:11"
