:1000000002308A002B2A00000A108A100A11820787
:100010004D346F346E3400340A108A100A1182078E
:1000200054347534653400340A108A100A1182077A
:1000300057346534643400340A108A100A11820778
:1000400054346834753400340A108A100A11820757
:1000500046347234693400340A108A100A11820757
:1000600053346134743400340A108A100A11820740
:10007000533475346E340034B012751DB012751DD2
:10008000B0127510A0127310A53AAF12F5173218FE
:10009000311C0A00B012751DB012751DA53A201052
:1000A000A539A012F517A53A2F19B0183805000187
:1000B000B012751DA53A3A18A53A2010A539A0121C
:1000C000F517A53A2F19B01838050001B012751DA3
:1000D000A53ABA127510A0127310A53AAF12F5170F
:1000E0003218311C0A00A53A3A18A53A3A18A53A2E
:1000F0002010A539A012F517A53A2F19B018380508
:100100000001A53A3A18A53ABA127510A012731058
:10011000A53AAF12F5173218311C0A00A53ABA12E7
:10012000751DB0127510A0127310A53AAF12F51715
:100130003218311C0A00A53ABA12751DA53A2010D2
:10014000A539A012F517A53A2F19B01838050000E7
:1001500039308400831300080319BB280230F800EB
:10016000F701F70BB128F80BB0289730F700F70B21
:10017000B728800BAE28080094138C113D0893001B
:100180000230941BCA288C1DC32800308316111B13
:1001900001308312F8000800141383169115911989
:1001A000CF2877189112771C91161116111AD6289C
:1001B00083121308F8000800831611141118DE28A2
:1001C000D0308312BD00BC203608BD00BC20831691
:1001D00091149118E928D1308312BD00BC20B801D8
:1001E000013037023802031803290130B900A82072
:1001F00021303807840083130130F700CC207808C1
:100200008000B80AF0282130380784008313F701F2
:10021000CC20780880008316111511190D2983123E
:100220008A110A12772AF701F801380803103918E1
:10023000F707F70CF80CB918F707F70CF80C391991
:10024000F707F70CF80CB919F707F70CF80C391A7F
:10025000F707F70CF80CB91AF707F70CF80C391B6D
:10026000F707F70CF80CB91BF707F70CF80C0800A8
:100270003908F8013802031840293808F7004C29DA
:10028000F7010830BA00B80DF70D390877020318E6
:10029000F700F80DBA0B4329080078083608B800B3
:1002A0006430B90038217708B60078083030031D73
:1002B0006029B71C6829B7196829371A20306329C3
:1002C000B71137123714F80778080C1E6529990002
:1002D0003608B8000A30B90038217708B600780827
:1002E0003030031D7929B7197E29371C7E29371A2A
:1002F0002030F80778080C1E7B2999003030B607AB
:1003000036080C1E812999000800800803199B29D2
:10031000B7010408B6003710831B371400080C1E01
:100320008F29990036088400831337188317840AAD
:100330000319850A852908000B08B7008B1383165B
:1003400003178C170C140000000083120313B71B53
:100350008B170318D42903170C087F390313B70030
:1003600003170D080313B80003170F080313B90090
:1003700037080C1EB9299900380803178D0003139C
:10038000390803178F0003130B08BA008B13831669
:1003900003178C170C140000000083120313BA1B00
:1003A0008B17B60BD429F42903170C0D0E0D7F39CA
:1003B0000313B70003170D080313B80003170F0842
:1003C0000313B90037080C1EE329990038080317F6
:1003D0008D000313390803178F008D0A03198F0A44
:1003E00003100313B60B9C2908001030BC00F70162
:1003F000FA01B90CB80C031C032A3A08F7070318D2
:10040000FA0A3B08FA07FA0CF70CF90CF80CBC0BCB
:10041000F9298A110A129C2D8316111411180E2A1B
:10042000B0308312BD00BC203808BD00BC203A08A3
:10043000BB00BC013A08BD00BC203908BB00BC01B0
:100440003908BD00BC20831611151119252A831205
:100450008A110A12AB2D03081F39830071308316ED
:100460008F0090010F08031787110C3003139900B8
:10047000A2309800903083129800FF30A000A015A1
:100480002008831687008312201620088316870011
:10049000133093002830831294008316941714139A
:1004A0008312AA01A901831603170908C03989001C
:1004B00003131F129F120030031788008312870155
:1004C0008801890183130313A101A201A301A401DF
:1004D000A501A601A701A8010430B600FA30B900B1
:1004E000A820B60B6E2AB6010630B700DC28210E14
:1004F000F7000F30F7057708B700B8000A30B900E9
:1005000013217808B60021080F397807AB00220EB6
:10051000F7000F30F7057708B700B8000A30B900C8
:1005200013217808B60022080F397807AC00230E93
:10053000F7000F30F70577080B39B700B8000A301D
:10054000B90013217808B60023080F397807AD00E9
:1005500024080F39AE00250EF7000F30F705770895
:10056000B700B8000A30B90013217808B600250892
:100570000F397807B400260EF7000F30F70577081B
:10058000B700B8000A30B900132126080F397807E0
:10059000B50001302E02F93E0318462B073EAD2D63
:1005A000B601B7012F30840083133608840737085B
:1005B0000420800000380319E02AB70AB60AD22ABC
:1005C000462BB601B7012F30840083133608840709
:1005D00037080C20800000380319F12AB70AB60A40
:1005E000E32A462BB601B7012F3084008313360867
:1005F000840737081420800000380319022BB70A3B
:10060000B60AF42A462BB601B7012F3084008313B3
:100610003608840737081C20800000380319132B84
:10062000B70AB60A052B462BB601B7012F30840056
:100630008313360884073708242080000038031904
:10064000242BB70AB60A162B462BB601B7012F305A
:10065000840083133608840737082C208000003874
:100660000319352BB70AB60A272B462BB601B7015B
:100670002F30840083133608840737083420800025
:1006800000380319462BB70AB60A382B2D08093C47
:10069000031C762C2C08093C031CE62B2B08093C78
:1006A000031C9E2B30300C1E532B99002D08B600D6
:1006B0001B30B7004D213A300C1E5C2B99003030B6
:1006C0000C1E602B99002C08B6001B30B7004D2182
:1006D0003A300C1E692B990030300C1E6D2B99009E
:1006E0002B08B6001B30B7004D2120300C1E762B96
:1006F000990020300C1E7A2B99002F308400831330
:10070000852120300C1E822B99003408B6001B3046
:10071000B7004D212F300C1E8B2B99003508B600E9
:100720001B30B7004D21463003178D0000308F007D
:10073000031406300313B6009C21E52B30300C1E49
:100740009F2B99002D08B6001B30B7004D213A3081
:100750000C1EA82B990030300C1EAC2B99002C08D5
:10076000B6001B30B7004D213A300C1EB52B990056
:100770002B08B6001B30B7004D2120300C1EBE2BBD
:10078000990020300C1EC22B99002F308400831357
:10079000852120300C1ECA2B99003408B6001B306E
:1007A000B7004D212F300C1ED32B99003508B60011
:1007B0001B30B7004D21543003178D0000308F00DF
:1007C000031006300313B6009C21752C2B08093C3E
:1007D000031C322C30300C1EEB2B99002D08B60078
:1007E0001B30B7004D213A300C1EF42B99002C0819
:1007F000B6001B30B7004D213A300C1EFD2B99007E
:1008000030300C1E012C99002B08B6001B30B700AD
:100810004D2120300C1E0A2C990020300C1E0E2C6D
:1008200099002F3084008313852120300C1E162C54
:1008300099003408B6001B30B7004D212F300C1E34
:100840001F2C99003508B6001B30B7004D216230CF
:1008500003178D0000308F00031006300313B6001D
:100860009C21752C30300C1E332C99002D08B600BD
:100870001B30B7004D213A300C1E3C2C99002C083F
:10088000B6001B30B7004D213A300C1E452C9900A4
:100890002B08B6001B30B7004D2120300C1E4E2C0B
:1008A000990020300C1E522C99002F3084008313A5
:1008B000852120300C1E5A2C99003408B6001B30BC
:1008C000B7004D212F300C1E632C99003508B6005F
:1008D0001B30B7004D216F3003178D0000308F00A3
:1008E000031406300313B6009C21912D2C08093CFB
:1008F000031C0A2D2B08093C031CC62C2D08B6002E
:100900001B30B7004D213A300C1E842C990030303A
:100910000C1E882C99002C08B6001B30B7004D2106
:100920003A300C1E912C990030300C1E952C9900F9
:100930002B08B6001B30B7004D2120300C1E9E2C1A
:10094000990020300C1EA22C99002F3084008313B4
:10095000852120300C1EAA2C99003408B6001B30CB
:10096000B7004D212F300C1EB32C99003508B6006E
:100970001B30B7004D217D3003178D0000308F00F4
:10098000031006300313B6009C21092D2D08B60074
:100990001B30B7004D213A300C1ECC2C9900303062
:1009A0000C1ED02C99002C08B6001B30B7004D212E
:1009B0003A300C1ED92C99002B08B6001B30B7001A
:1009C0004D2120300C1EE22C990020300C1EE62C0C
:1009D00099002F3084008313852120300C1EEE2CCB
:1009E00099003408B6001B30B7004D212F300C1E83
:1009F000F72C99003508B6001B30B7004D218A301E
:100A000003178D0000308F00031406300313B60067
:100A10009C21912D2B08093C031C522D2D08B6005A
:100A20001B30B7004D213A300C1E142D99002C08B4
:100A3000B6001B30B7004D213A300C1E1D2D990019
:100A400030300C1E212D99002B08B6001B30B7004A
:100A50004D2120300C1E2A2D990020300C1E2E2DE9
:100A600099002F3084008313852120300C1E362DF1
:100A700099003408B6001B30B7004D212F300C1EF2
:100A80003F2D99003508B6001B30B7004D21973037
:100A900003178D0000308F00031406300313B600D7
:100AA0009C21912D2D08B6001B30B7004D213A3006
:100AB0000C1E582D99002C08B6001B30B7004D2194
:100AC0003A300C1E612D99002B08B6001B30B70080
:100AD0004D2120300C1E6A2D990020300C1E6E2DE9
:100AE00099002F3084008313852120300C1E762D31
:100AF00099003408B6001B30B7004D212F300C1E72
:100B00007F2D99003508B6001B30B7004D21A43069
:100B100003178D0000308F00031006300313B6005A
:100B20009C21B7012C08B6003708B9003608B80078
:100B3000BB016430BA00F5297908B7007808B6001F
:100B40002B08B6070318B70A0230B8003708BA00F6
:100B50003608B9000C2A6C2A63000A148A100A1598
:100B60008207D02AE12AF22A032B142B252B362BBD
:04400E00C42FFF3F7D
:00000001FF
;PIC16F886
;CRC=0BC6  CREATED="31-Á.¤.-18 22:42"
